:020000040800F2
:1000000030040020010100081F100008AB0F000899
:100010001D1000086D010008C71500080000000051
:10002000000000000000000000000000F1140008C3
:10003000B90100080000000021100008691500083F
:100040001B0100081B0100081B0100081114000817
:100050001B0100081B0100081B0100081B01000810
:100060001B0100081B0100081B0100081B01000800
:100070001B0100081B0100081B0100081B010008F0
:100080001B0100081B0100081B0100081B010008E0
:100090001B0100081B0100081B0100081B010008D0
:1000A0001B0100081B0100081B0100081B010008C0
:1000B0001B0100081B010008000000001B010008D4
:1000C0001B01000800000000000000001B010008E8
:1000D000000000001B0100081B01000800000000D8
:1000E0001B0100081B0100081B010008DFF80CD0F1
:1000F00000F02AF8004800470916000830040020E4
:100100000648804706480047FEE7FEE7FEE7FEE7B1
:10011000FEE7FEE7FEE7FEE7FEE7FEE7C51500089F
:10012000ED000008D2B201E000F8012B491EFBD21D
:1001300070470022F6E710B513460A4604461946F2
:10014000FFF7F0FF204610BD064C074D06E0E068C3
:1001500040F0010394E8070098471034AC42F6D30E
:10016000FFF7C8FF2418000844180008FEE7000045
:1001700070B5104E0121304600F012F905460221FB
:10018000304600F00DF904460421304600F008F92D
:10019000012D08D0012C0AD001280AD1801EBDE80B
:1001A000704000F03FBFBDE8704001F0A3B90120EE
:1001B000F5E770BD000C01407047000070B50446C3
:1001C00000F0F8F80546601C02D0044800780444AA
:1001D00000F0F0F8401BA042FAD370BD08000020E8
:1001E0002DE9F84FDFF89C91002409F1040A0AF187
:1001F000040B23460F270BF1040EBBE00125A5409D
:100200002A40AA4276D1DFF880C14E68A6EB0C08DE
:1002100066452BD00DDC032E34D005DC36B3012E21
:1002200019D0022E2FD11BE0112E16D0122E2AD15A
:1002300019E0B8F5881F19D006DCB8F5803F15D055
:10024000B8F5801F1FD111E0B8F5001F0ED0B8F52A
:10025000041F18D10AE0CB6815E0CB681B1D12E023
:10026000CB6808330FE0CB680C330CE08B682BB104
:10027000012B4FF0080303D0456104E0042302E0A2
:10028000056100E00023FF2A01D8064601E000F1E5
:1002900004064FEA840501D9A5F12005D6F80080AF
:1002A00007FA05FC28EA0C0803FA05F548EA0508F0
:1002B000C6F800804D68ED005BD5344DAE6946F060
:1002C0000106AE61AD6924F0030605F00105009555
:1002D0002F4D06EB050CDCF80850A607360F07FA81
:1002E00006F825EA0805DFF8AC80404503D14FF059
:1002F000000810E03DE0DFF8A080404502D14FF05B
:10030000010808E0DFF89480404502D14FF0020870
:1003100001E04FF0030808FA06F848EA0508CCF8AF
:1003200008804D68D9F80060ED034D4601D51643AD
:1003300000E096432E604D68DAF80060AD03554644
:1003400001D5164300E096432E604D68DBF800604F
:10035000ED025D4601D5164300E096432E604D68E0
:10036000DEF80060AD02754601D5164300E0964305
:100370002E60641C0A6832FA04F57FF43FAFBDE8D2
:10038000F88F00000004014000001110001002402E
:100390000000014000080140000C01400010014035
:1003A0008068084000D0012070470AB101617047A1
:1003B0000904FBE70148806870470000080000203E
:1003C000024881680278114481607047080000206B
:1003D000074810B5016841F010010160032000F0EA
:1003E00075F8002000F006F800F024F8002010BD99
:1003F0000020024070B50D4D04464FF47A71287804
:10040000B1FBF0F00A490968B1FBF0F000F0B9FD6A
:1004100048B9102C07D200222146501E00F036F8B1
:1004200000206C6070BD012070BD0000080000203D
:10043000140000200C4808B5816941F00101816178
:10044000816901F001010091C16941F08051C161F0
:10045000C06900F0805000900448416821F0E061DC
:1004600041F08061416008BD001002400000014081
:10047000002809DB00F01F020121914040098000A3
:1004800000F1E020C0F8001170470000F0B40E4BFE
:100490001B680C46C3F30223C3F10705042D00D9E2
:1004A0000425191D072901D2002300E0DB1E0126C7
:1004B00006FA05F1491E214099409E40761E1640DD
:1004C0003143F0BC01F080B80CED00E0064900F0CB
:1004D000070208684FF6FF03184040EA0220034A6B
:1004E00010430860704700000CED00E00000FA05C2
:1004F000014901200862704700000E4210B529A48E
:1005000001461DCC86B08DE81D002AA02A4C00684B
:1005100004900020012923D002293AD010291DD1AE
:1005200061682268D20119D5C1F38342C9031DF85D
:10053000020009D5616804AAC1F34041515C1F4A19
:10054000B2FBF1F1484301E01D49484361684902AB
:1005500004D440005FF00301B0FBF1F006B010BD21
:10056000226AC2F30121012903D1920701D5C803F0
:10057000F4E7022905D1626A920702D549F64040A4
:10058000ECE70329EAD121688903E7D54FF224403B
:10059000E4E700F023F96168C1F38131491C4900A7
:1005A000DAE7000002030405060708090A0B0C0D30
:1005B0000E0F1010010200000010024000127A001D
:1005C00000093D002DE9F84305460078354CC00789
:1005D00054D0E0690026C00008D4E06940F08050A3
:1005E000E061E069012600F0805000902E4801682B
:1005F000C90512D40168804641F480710160FFF79B
:10060000D9FE074605E000BFFFF7D4FEC01B6428F3
:1006100023D8D8F80000C005F6D5206A10F4407041
:1006200021D0A98801F4407181421CD0206A1F4961
:10063000012220F440700A6000220A602062C00794
:1006400011D0FFF7B7FE074641F2883808E000BF37
:10065000FFF7B0FEC11B414502D90320BDE8F88376
:10066000206A8007F4D5206A696820F44070084346
:1006700020621EB1E06920F08050E0612878800798
:1006800005D56068A96820F4404008436060287878
:10069000C00605D56068E96820F480000843606002
:1006A0000020DBE70010024000700040400442429E
:1006B0002DE9F0470F46050061D0434E306800F049
:1006C0000700B84209D2306820F007003843306094
:1006D000306800F00700B84251D128683B4C8107D0
:1006E00012D5400703D5606840F4E0606060287868
:1006F000000703D5606840F4605060606068A968D6
:1007000020F0F000084360602878C00728D06868AF
:10071000012810D02168022810D0890700292EDA7C
:10072000616821F0030101436160FFF743FE8046E9
:1007300041F288390DE021688903EFE78901EDE78F
:10074000FFF738FEA0EB0801494502D90320BDE8B8
:10075000F0876068696800F00C00B0EB810FEFD1A2
:10076000306800F00700B8420BD9306820F007006D
:1007700038433060306800F00700B84201D00120F3
:10078000E5E72878400705D56068E96820F4E0606F
:10079000084360602878000706D56068296920F45E
:1007A000605040EAC100606000F028F86168084AC3
:1007B000C1F30311515CC84006490860064800684F
:1007C000FFF718FE0020C2E70020024000100240A0
:1007D0000C180008140000200C00002004480549F3
:1007E00000684968044AC1F3C221515CC84070479F
:1007F00014000020001002401C18000812A185B04F
:100800000FC98DE80F0014A0144A006804905168C5
:10081000134801F00C03042B10D0082B0ED1C1F3A8
:100820008343C9031DF803000AD5516804AAC1F324
:100830004041515C0A4A5043B0FBF1F005B07047AB
:1008400008494843FAE700000203040506070809BF
:100850000A0B0C0D0E0F10100102000000100240D8
:1008600000127A0000093D002DE9F84F040070D015
:100870002078C04DC00749D06868C0F381000128C6
:1008800007D06868C0F38100022809D16868C003F6
:1008900006D52868800339D560680028E7D035E0A0
:1008A0006068B0F5803F0BD010B1B0F5A02F11D02B
:1008B000286820F480302860286820F4802002E036
:1008C000286840F480302860606890B1FFF772FDBE
:1008D00006460AE0286840F480202860F0E700BF60
:1008E000FFF768FD801B642873D828688003F7D55C
:1008F0000CE0FFF75FFD064605E000BFFFF75AFD7D
:10090000801B6428F0D828688003F7D420789A4E9A
:1009100080074FF001094FF0000839D5686810F0E2
:100920000C0F07D06868C0F38100022809D16868FD
:10093000C00306D42868800714D52069012808D18F
:1009400010E02069B0B1C6F80090FFF733FD07460C
:1009500005E00AE1FFF72EFDC01B0228C4D8286875
:100960008007F7D52868616920F0F80040EAC100E7
:1009700028600DE0C6F80080FFF71CFD074604E084
:10098000FFF718FDC01B022823D828688007F7D47A
:10099000207800072CD57948A169D9B1C0F800901A
:1009A000FFF708FD074604E0FFF704FDC01B02281F
:1009B0000FD8686A8007F7D571484FF4FA5100687C
:1009C000B0FBF1F0009000BF0098411E0091FAD2F8
:1009D0000EE080E0C0F80080FFF7ECFC074604E082
:1009E000FFF7E8FCC01B022875D8686A8007F7D4B7
:1009F0002078400760D5E8690027C00008D4E8697E
:100A000040F08050E861E869012700F080500090D4
:100A10005C480168C90513D40168834641F48071BC
:100A20000160FFF7C7FC824606E000BFFFF7C2FC8B
:100A3000A0EB0A0064284ED8DBF80000C005F5D50D
:100A4000E06801280AD008B1052813D0286A20F0F0
:100A500001002862286A20F0040002E0286A40F0C1
:100A600001002862E06841F2883B98B1FFF7A2FCE0
:100A700082460BE0286A40F004002862EEE700BFDF
:100A8000FFF798FCA0EB0A0159455AD8286A80075D
:100A9000F6D50CE0FFF78EFC824605E0FFF78AFCF6
:100AA000A0EB0A0159454CD8286A8007F6D41FB13B
:100AB000E86920F08050E861E06988B36968C1F3B3
:100AC0008101022944D00228C6F8608004D0FFF7D3
:100AD00071FC044638E034E0FFF76CFC074604E0A4
:100AE000FFF768FCC01B02282BD828688001F7D4C8
:100AF000206AB0F5803F05D16868A16820F4003015
:100B000008436860D4E908010843696821F4741156
:100B100008436860C6F86090FFF74CFC044606E0A6
:100B200025E000BFFFF746FC001B022809D8286813
:100B30008001F7D51BE000BFFFF73CFC001B02283B
:100B400002D90320BDE8F88F28688001F4D40EE0B4
:100B50000128F7D06868226A00F48031914204D1FC
:100B6000616A00F47010884201D00120EAE7002099
:100B7000E8E70000001002400000424280044242C8
:100B800014000020007000407047704710B5044604
:100B900000680168C90716D04168C90713D04068CA
:100BA0004007204607D5FFF7F0FF21686FF00400EB
:100BB0004860042002E0FFF7E7FF0120607421682D
:100BC0006FF00100486010BDF8B505004FF000005F
:100BD00016460C46009006D02CB1002269462846E5
:100BE00000F019F808B10120F8BD287B2070E87BDF
:100BF000E070697B6170A97BA17056B100F06FFB5A
:100C0000E070607800F06BFB6070A07800F067FB2C
:100C1000A0700020F8BD2DE9F04791460C465FEA30
:100C200000084AD084B3D8F800004068400744D494
:100C3000404600F0FAFB4FF461620546B0FBF2F16A
:100C4000B0FBF2F302FB13503C23B0FBF3F0B5FB17
:100C5000F2F6607002FB1650B0FBF3F203FB1200D9
:100C6000A070182931D31820B1FBF0F7B1FBF0F2D6
:100C700000FB12102070404600F0D0FB411C04D055
:100C8000A84202D9461B02E017E04FF0FF36A7EB5F
:100C9000071000EB4000C0EB001005EBC015294623
:100CA000404600F011FC40B9701C01D0711900E001
:100CB0003146404600F0F4FB10B10120BDE8F0875A
:100CC0003946404600F016FB00E02170B9F1000FF4
:100CD0000BD0207800F003FB2070607800F0FFFA62
:100CE0006070A07800F0FBFAA0700020E6E700003A
:100CF00070B5040003D0607C002610B105E001202F
:100D000070BD2674204600F043F80220607420462F
:100D100000F01AF9042578BB204600F042FB58BBCE
:100D20002068416821F007014160A06820B11748A0
:100D3000016821F0010101601448001F0168A268E8
:100D400021F46071114301606068411C04D10120ED
:100D5000FFF7D4FB80B1401E21688A6822F00F02A1
:100D600042EA10428A602168CA6860F30F02CA60D2
:100D7000204600F031FB08B16574C0E7E67301203E
:100D80006073A0736074002070BD0000306C004080
:100D900008B500680D49884217D1FFF7A9FB0C4838
:100DA000C16941F00061C161C0690A4900F0006099
:100DB000009001200860002211460320FFF766FB27
:100DC000BDE808400320FFF753BB08BD00280040E2
:100DD000001002403C0442422DE9F0410D4604005F
:100DE0003BD0C5B3207C01283AD04FF0010884F8ED
:100DF000108002206074E87872B300F067FAE07344
:100E0000687800F063FA6073A87800F05FFAA07366
:100E1000C2B2617BE07B00F018FB20732870204693
:100E200000F003FB4FF46161B0FBF1F100251829DC
:100E30002DD91822B1FBF2F1A1EB011101EB410117
:100E4000C1EB011100EBC1163146204600F03CFB1E
:100E50000427C8B90BE000E004E00120BDE8F08100
:100E60000220FBE7E07368786073A878CFE720463C
:100E700000F0D4FA411C0AD0B04208D2064901441D
:100E8000204600F00DFB10B167742574E5E784F887
:100E9000118025740020E1E7805101002DE9F04127
:100EA0000D46040024D01DB3207C012823D04FF030
:100EB000010884F81080022060742878EAB100F0FC
:100EC00005FA4FF4616100FB01F6687800F0FEF965
:100ED000C0EB001006EB8006A87800F0F7F9351893
:100EE0002946204600F0F0FA0026042710BB0FE048
:100EF0000120BDE8F0810220FBE74FF46161484327
:100F00006978C1EB011100EB8100A9784518E7E78A
:100F10002068416821F005014160204600F07EFA1A
:100F2000411C0AD0A84208D206490144204600F0DC
:100F3000B7FA10B167742674DAE784F81180267462
:100F40000020D6E78051010070B504000AD0206867
:100F5000416821F008014160FFF72CFA05464FF483
:100F60007A7608E0012070BDFFF724FA401BB042FA
:100F700001D9032070BD206840680007F4D5002027
:100F800070BD10B5401EB0F1807F01D3012010BDAF
:100F90004FF0E02460610F21601700F015FB002086
:100FA000A06107202061002010BDFEE770B586B06B
:100FB000002417480094019402940394816941F03D
:100FC00004018161816901F004010491816941F0AA
:100FD0000801816180690F4E00F008000490002232
:100FE0003F213046FFF7E1F93F20009001AA0120A0
:100FF000022582E8310069463046FFF7F1F8072004
:101000008DE8310069460448FFF7EAF806B070BD84
:101010000010024000080140000C0140FEE770474C
:1010200070470000F8B5414F05463A78002A7BD05A
:101030007C1C00263B21E01C082A66D2DFE802F077
:10104000650414214A3C2E5800F01EFB20782844E9
:10105000C0B22070182802D0FF2802D055E02670B8
:1010600053E01720207050E060782844C0B26070D0
:101070003C2802D0FF2802D047E0667045E061704E
:1010800043E0A0782844C0B2A0703C2802D0FF28DA
:1010900002D03AE0A67038E0A17036E0C178294469
:1010A000C9B2C170642902D0FF2902D02DE0C670F8
:1010B0002BE06321C17028E041782944C9B2417016
:1010C0000D2902D0FF2902D01FE046701DE00C213F
:1010D00041701AE081782944C9B28170202902D078
:1010E000FF2902D011E086700FE01F2181700CE013
:1010F00001782944C9B20170072902D0FF2902D022
:1011000003E0067001E006210170B7F80100ADF8B8
:101110000000F8788DF80200009800F06DF878680B
:10112000BDE8F84000F004B8F8BD00000000002061
:1011300070B504460021012000F0B1FAC4F3074560
:101140000A2D02D21CA000F007FB284600F0D6FAB8
:101150001AA000F001FBC4F307250A2D02D216A045
:1011600000F0FAFA284600F0C9FA14A000F0F4FAE8
:10117000250E0A2D02D210A000F0EEFA284600F04B
:10118000BDFAE0B2072816D2DFE800F00406080A2C
:101190000C0E10000AA00AE00BA008E00CA006E06C
:1011A0000DA004E00EA002E00FA000E010A0BDE83A
:1011B000704000F0D1BA70BD300000002E00000079
:1011C000202053554E00000020204D4F4E000000BF
:1011D00020205455450000002020574544000000C1
:1011E00020205448550000002020465249000000AD
:1011F000202053415400000070B5044600F044FA2A
:101200000021084600F04BFAE5B20A2D02D21EA0DA
:1012100000F0A2FA284600F071FA1CA000F09CFA37
:10122000C4F307250A2D02D217A000F095FA28462C
:1012300000F064FA15A000F08FFAC4F307440A2CFA
:1012400002D211A000F088FA204600F057FA1048A8
:101250000078082816D2DFE800F0150406080A0C0A
:101260000E100CA00AE00DA008E00EA006E00FA0F2
:1012700004E010A002E011A000E012A0BDE8704060
:1012800000F06ABA70BD0000300000003A000000B3
:101290000000002020484F5552000000204D494ECC
:1012A0000000000020534543000000002044415945
:1012B00000000000204D4F4E544800002059454189
:1012C000520000002057444159000000010901EB81
:1012D000810100F00F0000EB4100C0B27047002117
:1012E00002E00A38C0B2491C0A28FAD2090740EACB
:1012F000116070472DE9F04104460025C07B627BF8
:10130000A37B42E0012A16D0032A14D0052A12D06A
:10131000072A10D0082A0ED00A2A0CD00C2A0AD08C
:10132000042A10D0062A0ED0092A0CD00B2A0AD083
:10133000022A0DD028E01F2B0CD30C2A05D1012244
:101340001346401C20E01E2B04D30123521C1BE03B
:101350001C2B02D203F1010316E011D183B29E07C8
:1013600010D16426B3FBF6F706FB173636B94FF4F7
:10137000C876B3FBF6F706FB17331BB91D2303E052
:101380001D2B01D1032201236D1C8D42BAD3D1B292
:10139000E0736173DAB2A27300F057F82073BDE80E
:1013A000F08170B50446FFF705F805464FF47A76EC
:1013B00006E0FEF7FFFF401BB04201D9032070BDDD
:1013C000206840688006F4D52068416841F010012B
:1013D0004160002070BD000070B50446006841689F
:1013E00021F010014160FEF7E5FF05464FF47A76E3
:1013F00007E000BFFEF7DEFF401BB04201D903202B
:1014000070BD206840688006F4D5002070BD0000E3
:101410000148FFF7BBBB0000180000200168086A04
:10142000496A89B241EA00407047006881698AB21E
:10143000C1698BB2816989B28A4203D0C06961F304
:101440001F40704743EA02407047F0B56424C1EB87
:10145000C1030927A500072603EB01130329B3FBEA
:10146000F7F100F5FA60114401440AD2401EB0FBC6
:10147000F4F201EB9001B0FBF5F0891A0844001D6D
:1014800008E0B0FBF4F201EB9001B0FBF5F0891A33
:101490000844801CB0FBF6F106FB1100C0B2F0BDA1
:1014A00070B50D4606460024FFF77BFF48B931684A
:1014B000280C08623168A8B248623046FFF78CFFFA
:1014C00000B10124204670BD70B50D4606460024CB
:1014D000FFF767FF48B93168280C88613168A8B206
:1014E000C8613046FFF778FF00B10124204670BD87
:1014F0007047000038B51A4C2078401CC0B22070EC
:10150000082802D001280FD01AE015490022491CF2
:101510001448FFF7C3FC12490022091D1148FFF7C8
:101520005BFC002020700BE00D490022491C0D4897
:10153000FFF771FB0A490022091D0A48FFF744FB27
:10154000B4F80100ADF80000E0788DF802000098D2
:10155000FFF752FE6068BDE83840FFF7E9BD0000C4
:101560000000002018000020FEF72ABF30B593B01D
:1015700028216846FEF7DDFD14210AA8FEF7D9FDF3
:10158000002401250F940A2000901020109411943B
:10159000CDE90450CDE9065412946846FFF764F98A
:1015A0000F20CDE90A040C940D9400210AA80E9492
:1015B000FFF77EF86802CDE90F500FA8FFF702F899
:1015C00013B030BD7047FEE70907090E002804DBA1
:1015D00000F1E02080F80014704700F00F0000F1E7
:1015E000E02080F8141D704702E008C8121F08C1EF
:1015F000002AFAD170477047002001E001C1121F94
:10160000002AFBD1704700001CB5FEF7E1FEFFF792
:10161000ADFFFFF7CBFC1A48184901604FF0FF31CE
:1016200041604FF480718160FFF762FB00F040F889
:10163000144E4FF47A7440F2DE3500BFFEF7BAFE66
:10164000B0FBF4F104FB1100A84213D9307888B93B
:1016500000F01AF8002269460948FFF7DCFA002278
:1016600001A90748FFF7B0FA0098FFF7C5FD0198F8
:10167000FFF75EFDFEF77CFDE0E70000002800407C
:10168000180000200000002010B50021012000F00B
:101690008DF80021BDE81040022000F087B800B1AD
:1016A0004020084340F08000002100F07FB8000097
:1016B00010B5114C206820F03F0020603220FEF76A
:1016C0007DFD206820F010002060206820F02000C0
:1016D00020600220206000F04DF80021282000F05A
:1016E00065F800210C2000F061F80021BDE81040F1
:1016F000062000F05BB800000C0801407FB50146F1
:101700000A2301E091FBF3F10929FBDC00216A4681
:1017100009E000BF90FBF3F403FB140490FBF3F02B
:1017200030345454491C0928F4DC30305054002023
:10173000491C01EBD173505407E00D1A1544145C99
:1017400015F8016D16542C70401CB0EB630FF4DBE0
:10175000104600F001F87FBD10B5044603E00121FA
:1017600000F024F8641C002C02D020780028F6D168
:1017700010BD000010B50C4C206820F02000206047
:101780000120FEF71BFD206840F0200020600120B2
:10179000FEF714FD206820F020002060BDE8104016
:1017A0000120FEF70BBD00000C08014070B5164C7F
:1017B00006460D46206820F03F002060206840EA81
:1017C000161020602068012917D020F0100020603A
:1017D000FFF7D0FF206820F03F002060206806F06F
:1017E0000F01084320602068012D09D020F010006F
:1017F0002060BDE87040FFF7BDBF40F01000E6E795
:1018000040F01000F4E700000C0801400000000068
:1018100000000000010203040607080900000000A0
:101820000102030444180008000000201800000012
:10183000E81500085C1800081800002018040000D3
:10184000F815000800000000000000000100000082
:0C18500010000000000000000024F40064
:04000005080000ED02
:00000001FF
